{
  "contractName": "TodoList",
  "abi": [
    {
      "constant": true,
      "inputs": [
        {
          "name": "",
          "type": "uint256"
        }
      ],
      "name": "tasks",
      "outputs": [
        {
          "name": "id",
          "type": "uint256"
        },
        {
          "name": "content",
          "type": "string"
        },
        {
          "name": "completed",
          "type": "bool"
        }
      ],
      "payable": false,
      "stateMutability": "view",
      "type": "function",
      "signature": "0x8d977672"
    },
    {
      "constant": true,
      "inputs": [],
      "name": "taskCount",
      "outputs": [
        {
          "name": "",
          "type": "uint256"
        }
      ],
      "payable": false,
      "stateMutability": "view",
      "type": "function",
      "signature": "0xb6cb58a5"
    },
    {
      "inputs": [],
      "payable": false,
      "stateMutability": "nonpayable",
      "type": "constructor",
      "signature": "constructor"
    },
    {
      "anonymous": false,
      "inputs": [
        {
          "indexed": false,
          "name": "id",
          "type": "uint256"
        },
        {
          "indexed": false,
          "name": "content",
          "type": "string"
        },
        {
          "indexed": false,
          "name": "completed",
          "type": "bool"
        }
      ],
      "name": "TaskCreated",
      "type": "event",
      "signature": "0x05d0fb833127fc08168556d0e7ca9554fc3f6bc843b3b7d2bf1c35aea6bab660"
    },
    {
      "anonymous": false,
      "inputs": [
        {
          "indexed": false,
          "name": "id",
          "type": "uint256"
        },
        {
          "indexed": false,
          "name": "content",
          "type": "string"
        },
        {
          "indexed": false,
          "name": "completed",
          "type": "bool"
        }
      ],
      "name": "TaskUpdated",
      "type": "event",
      "signature": "0x731243b94fd6f4071f6ac97a26cb4cff681428631c877c64cdea5371290b01c1"
    },
    {
      "constant": false,
      "inputs": [
        {
          "name": "_content",
          "type": "string"
        }
      ],
      "name": "createTask",
      "outputs": [],
      "payable": false,
      "stateMutability": "nonpayable",
      "type": "function",
      "signature": "0x111002aa"
    },
    {
      "constant": false,
      "inputs": [
        {
          "name": "id",
          "type": "uint256"
        },
        {
          "name": "_completed",
          "type": "bool"
        }
      ],
      "name": "setTaskCompleteness",
      "outputs": [],
      "payable": false,
      "stateMutability": "nonpayable",
      "type": "function",
      "signature": "0x063f6861"
    }
  ],
  "bytecode": "0x60806040526000805534801561001457600080fd5b5060408051808201909152601c81527f312e206265636f6d6520612063727970746f20646576656c6f70657200000000602082015261005b90640100000000610060810204565b61021f565b60008054600190810180835560408051606081018252828152602080820187815282840187905293865284815291909420845181559151805192936100ad93908501929190910190610184565b5060408201518160020160006101000a81548160ff0219169083151502179055509050507f05d0fb833127fc08168556d0e7ca9554fc3f6bc843b3b7d2bf1c35aea6bab660600054826000604051808481526020018060200183151515158152602001828103825284818151815260200191508051906020019080838360005b8381101561014557818101518382015260200161012d565b50505050905090810190601f1680156101725780820380516001836020036101000a031916815260200191505b5094505050505060405180910390a150565b828054600181600116156101000203166002900490600052602060002090601f016020900481019282601f106101c557805160ff19168380011785556101f2565b828001600101855582156101f2579182015b828111156101f25782518255916020019190600101906101d7565b506101fe929150610202565b5090565b61021c91905b808211156101fe5760008155600101610208565b90565b6105ad8061022e6000396000f3fe6080604052600436106100615763ffffffff7c0100000000000000000000000000000000000000000000000000000000600035041663063f68618114610066578063111002aa1461009a5780638d9776721461014d578063b6cb58a514610201575b600080fd5b34801561007257600080fd5b506100986004803603604081101561008957600080fd5b50803590602001351515610228565b005b3480156100a657600080fd5b50610098600480360360208110156100bd57600080fd5b8101906020810181356401000000008111156100d857600080fd5b8201836020820111156100ea57600080fd5b8035906020019184600183028401116401000000008311171561010c57600080fd5b91908080601f01602080910402602001604051908101604052809392919081815260200183838082843760009201919091525092955061030d945050505050565b34801561015957600080fd5b506101776004803603602081101561017057600080fd5b5035610431565b604051808481526020018060200183151515158152602001828103825284818151815260200191508051906020019080838360005b838110156101c45781810151838201526020016101ac565b50505050905090810190601f1680156101f15780820380516001836020036101000a031916815260200191505b5094505050505060405180910390f35b34801561020d57600080fd5b506102166104e0565b60408051918252519081900360200190f35b6000828152600160208181526040928390206002808201805460ff191687151590811790915585518881529586015260609285018381529184018054610100958116159590950260001901909416049184018290527f731243b94fd6f4071f6ac97a26cb4cff681428631c877c64cdea5371290b01c1938693928692906080830190859080156102f95780601f106102ce576101008083540402835291602001916102f9565b820191906000526020600020905b8154815290600101906020018083116102dc57829003601f168201915b505094505050505060405180910390a15050565b600080546001908101808355604080516060810182528281526020808201878152828401879052938652848152919094208451815591518051929361035a939085019291909101906104e6565b5060408201518160020160006101000a81548160ff0219169083151502179055509050507f05d0fb833127fc08168556d0e7ca9554fc3f6bc843b3b7d2bf1c35aea6bab660600054826000604051808481526020018060200183151515158152602001828103825284818151815260200191508051906020019080838360005b838110156103f25781810151838201526020016103da565b50505050905090810190601f16801561041f5780820380516001836020036101000a031916815260200191505b5094505050505060405180910390a150565b600160208181526000928352604092839020805481840180548651600296821615610100026000190190911695909504601f810185900485028601850190965285855290949193929091908301828280156104cd5780601f106104a2576101008083540402835291602001916104cd565b820191906000526020600020905b8154815290600101906020018083116104b057829003601f168201915b5050506002909301549192505060ff1683565b60005481565b828054600181600116156101000203166002900490600052602060002090601f016020900481019282601f1061052757805160ff1916838001178555610554565b82800160010185558215610554579182015b82811115610554578251825591602001919060010190610539565b50610560929150610564565b5090565b61057e91905b80821115610560576000815560010161056a565b9056fea165627a7a72305820f8ae7685fffc7388dc5f5e9f5bc5ee40787daf43f9f9e503e44530ca16c829f50029",
  "source": "pragma solidity ^0.5.0;\r\n\r\ncontract TodoList {\r\n    uint public taskCount = 0;\r\n\r\n    struct Task {\r\n        uint id;\r\n        string content;\r\n        bool completed;\r\n    }\r\n\r\n    mapping(uint => Task) public tasks;\r\n\r\n    event TaskCreated(\r\n        uint id,\r\n        string content,\r\n        bool completed\r\n    );\r\n\r\n    event TaskUpdated(\r\n        uint id,\r\n        string content,\r\n        bool completed\r\n    );\r\n\r\n    constructor() public {\r\n        createTask(\"1. become a crypto developer\");\r\n    }\r\n\r\n    function createTask(string memory _content) public {\r\n        taskCount ++;\r\n        tasks[taskCount] = Task(taskCount, _content, false);\r\n        emit TaskCreated(taskCount, _content, false);\r\n    }\r\n\r\n    function setTaskCompleteness(uint id, bool _completed) public {\r\n        tasks[id].completed = _completed;\r\n        emit TaskUpdated(id, tasks[id].content, _completed);\r\n    }\r\n\r\n\r\n}",
  "sourcePath": "D:/crypto/todo-eth/contracts/TodoList.sol",
  "compiler": {
    "name": "solc",
    "version": "0.5.0+commit.1d4f565a.Emscripten.clang"
  },
  "schemaVersion": "3.0.1",
  "updatedAt": "2022-05-03T22:44:12.234Z",
  "devdoc": {
    "methods": {}
  },
  "userdoc": {
    "methods": {}
  }
}